{
  "contractName": "Verifier",
  "abi": [
    {
      "constant": true,
      "inputs": [
        {
          "name": "a",
          "type": "uint256[2]"
        },
        {
          "name": "a_p",
          "type": "uint256[2]"
        },
        {
          "name": "b",
          "type": "uint256[2][2]"
        },
        {
          "name": "b_p",
          "type": "uint256[2]"
        },
        {
          "name": "c",
          "type": "uint256[2]"
        },
        {
          "name": "c_p",
          "type": "uint256[2]"
        },
        {
          "name": "h",
          "type": "uint256[2]"
        },
        {
          "name": "k",
          "type": "uint256[2]"
        },
        {
          "name": "input",
          "type": "uint256[39]"
        }
      ],
      "name": "verifyProof",
      "outputs": [
        {
          "name": "r",
          "type": "bool"
        }
      ],
      "payable": false,
      "stateMutability": "view",
      "type": "function",
      "signature": "0x3fe6f64c"
    }
  ],
  "bytecode": "0x608060405234801561001057600080fd5b506128e7806100206000396000f300608060405260043610610041576000357c0100000000000000000000000000000000000000000000000000000000900463ffffffff1680633fe6f64c14610046575b600080fd5b34801561005257600080fd5b50610247600480360381019080806040019060028060200260405190810160405280929190826002602002808284378201915050505050919291929080604001906002806020026040519081016040528092919082600260200280828437820191505050505091929192908060800190600280602002604051908101604052809291906000905b8282101561011b5783826040020160028060200260405190810160405280929190826002602002808284378201915050505050815260200190600101906100d9565b50505050919291929080604001906002806020026040519081016040528092919082600260200280828437820191505050505091929192908060400190600280602002604051908101604052809291908260026020028082843782019150505050509192919290806040019060028060200260405190810160405280929190826002602002808284378201915050505050919291929080604001906002806020026040519081016040528092919082600260200280828437820191505050505091929192908060400190600280602002604051908101604052809291908260026020028082843782019150505050509192919290806104e00190602780602002604051908101604052809291908260276020028082843782019150505050509192919290505050610261565b604051808215151515815260200191505060405180910390f35b600061026b6126c8565b6060600060408051908101604052808e600060028110151561028957fe5b602002015181526020018e60016002811015156102a257fe5b6020020151815250836000018190525060408051908101604052808d60006002811015156102cc57fe5b602002015181526020018d60016002811015156102e557fe5b60200201518152508360200181905250604080519081016040528060408051908101604052808e600060028110151561031a57fe5b6020020151600060028110151561032d57fe5b602002015181526020018e600060028110151561034657fe5b6020020151600160028110151561035957fe5b6020020151815250815260200160408051908101604052808e600160028110151561038057fe5b6020020151600060028110151561039357fe5b602002015181526020018e60016002811015156103ac57fe5b602002015160016002811015156103bf57fe5b6020020151815250815250836040018190525060408051908101604052808b60006002811015156103ec57fe5b602002015181526020018b600160028110151561040557fe5b6020020151815250836060018190525060408051908101604052808a600060028110151561042f57fe5b602002015181526020018a600160028110151561044857fe5b60200201518152508360800181905250604080519081016040528089600060028110151561047257fe5b6020020151815260200189600160028110151561048b57fe5b60200201518152508360a0018190525060408051908101604052808860006002811015156104b557fe5b602002015181526020018860016002811015156104ce57fe5b60200201518152508360e0018190525060408051908101604052808760006002811015156104f857fe5b6020020151815260200187600160028110151561051157fe5b60200201518152508360c0018190525060276040519080825280602002602001820160405280156105515781602001602082028038833980820191505090505b509150600090505b602781101561059e57848160278110151561057057fe5b6020020151828281518110151561058357fe5b90602001906020020181815250508080600101915050610559565b60006105aa83856105ce565b14156105b957600193506105be565b600093505b5050509998505050505050505050565b60006105d861273e565b6105e06127ae565b60006105ea610805565b92508260e0015151600187510114151561060357600080fd5b60408051908101604052806000815260200160008152509150600090505b8551811015610681576106728261066d8560e001516001850181518110151561064657fe5b90602001906020020151898581518110151561065e57fe5b90602001906020020151611f2b565b611fc5565b91508080600101915050610621565b6106a7828460e00151600081518110151561069857fe5b90602001906020020151611fc5565b91506106d0856000015184600001516106c38860200151612080565b6106cb61211b565b6121e5565b15156106df57600193506107fc565b610706836020015186604001516106f98860600151612080565b61070161211b565b6121e5565b151561071557600293506107fc565b61073c8560800151846040015161072f8860a00151612080565b61073761211b565b6121e5565b151561074b57600393506107fc565b6107978560c00151846060015161077b610776866107718b600001518c60800151611fc5565b611fc5565b612080565b8660a0015161078d8860800151612080565b8a604001516122f0565b15156107a657600493506107fc565b6107e86107b7838760000151611fc5565b86604001516107c98860e00151612080565b8660c001516107db8a60800151612080565b6107e361211b565b6122f0565b15156107f757600593506107fc565b600093505b50505092915050565b61080d61273e565b604080519081016040528060408051908101604052807f0392beb3c76654eaad9f8c428731cd111d654dc990bb660d5ae489e84ffc9c1881526020017f0ea076442e8ad2f1a330470b637cb3ab06cd228cf1fcbb557f19a5faa24ad1b1815250815260200160408051908101604052807f2f983582b2a613d5b9743938d449b5d204b70c355a55ec44fc9433c90e26874f81526020017f1e68b007f74913f84033c6bb9db6d21f39db2b425321b6bd56066ab540353c3e815250815250816000018190525060408051908101604052807f2da20bb0b7dc85048210b4ae3b05bc1ddc11bcb8a29b3707c94dd06e490a9bf381526020017f126192a55a8395eb68604148910dc6c9e806a9850efd7ff9b7c3da9edadf4f4c8152508160200181905250604080519081016040528060408051908101604052807f1012701640668aa67da3c8cd6b2b00cf4294bc50872626ff1c6f350612cfe56381526020017f2a9f639893b8c7f7903151df3c66db26ac12b9b5f482b6df6953217c7fe46771815250815260200160408051908101604052807f256500b1d17860658b7c6989e05021fd1aa85c70aba3e02cb10fc46fe057c74281526020017f179e6826fb2d16b6f809fbc8bc67915ba581ac596c3e789ec4e6c7b66fdf1a8c8152508152508160400181905250604080519081016040528060408051908101604052807f2c5c57daccc01f7974fd14541590e1e45cb1ef8021aa89b3d2f9f85809a4e73e81526020017f2e45fb080e9526632ef2347f11323bb7a4ac32bd547847f7d568071452e867ca815250815260200160408051908101604052807f19e3121725b5bd62d0ed96c8a80bae222c69734d0ada5f8f0f2242f5a50caef181526020017f151cf1213df767003ad9f62f12d1adb833dc42652c4125b01509daca801d54d5815250815250816060018190525060408051908101604052807f27a19cadfe4e5389287d3f78ac71d0106707c232179ef93f8d6e361bea78365b81526020017f2c2635338cf839736dc52f9facbfb2f717d5bc7792f34aade8baafaae933913b8152508160800181905250604080519081016040528060408051908101604052807f075d9397ef0e92ea8c934c48fcdb4caa32bdba0937754f5af4724f4c29cc8f4681526020017f0765ff53ab95ea0fd8841684b5df51533d06685a31ab3e9683e3d628c780e216815250815260200160408051908101604052807f0451babd8fe9cb51efa3c017d5e66781329f88319e0afaf8b18eb2851636741881526020017f01c3aa1b231fae6a177227dd579e35c37710b45e552ad72afa835bcdc105c7f88152508152508160a00181905250604080519081016040528060408051908101604052807f18732cdeb9f4b1eceef4d74e15bd0e2986a31c47327f3646af48ded8f4cda5c981526020017f172b78127e3ab43a4f5ef273cbaaf385a8268e8c644046b427cb672a57e3667d815250815260200160408051908101604052807f22664fd5125698edeb6ec02b14bd0d624318fd35d06a28416cb096e330fbe99e81526020017f0ef83d012b1a7fe61a258f5c828a605426dd329ba325f91b2df833bf9f1d96d28152508152508160c001819052506028604051908082528060200260200182016040528015610cdb57816020015b610cc86127c8565b815260200190600190039081610cc05790505b508160e0018190525060408051908101604052807f14465c669620987ab9d28c7a4940d083c942233819e7280ec5a424ed16b2eb2381526020017f277bdce0e5501a63b7f55958ca09a3f47afc47dad9f54a94d5eaffd066c017de8152508160e001516000815181101515610d4c57fe5b9060200190602002018190525060408051908101604052807f2e0d20d196ae8d5ab1b744c38e14562278c53a9f2c71b9d667a65a059fe68a5381526020017f0c917c92352efa2a3521c3796f759cb609e1fb03a8bca60426b904bec0d9c5bc8152508160e001516001815181101515610dc157fe5b9060200190602002018190525060408051908101604052807f0b8e4f437081cfb8b2ca4e11a96f2266b7a6310e02c5d4bdd90dcf24bfeda30d81526020017f2f72b4d05ebbb141725422e00e7a85141d2533018cc187c83c58ccc67ed0cc128152508160e001516002815181101515610e3657fe5b9060200190602002018190525060408051908101604052807f056e0347622bdff9feda4c9ace77409730abd04a75cab8eed182ea9b19e1dbc481526020017e2bb96ea897fdd7c0e0afe464753f3a10c745dc954895ae2a0835a800e33d298152508160e001516003815181101515610eaa57fe5b9060200190602002018190525060408051908101604052807f0bf1cd522208789b3bcdc384c68d5ebf24b46664300b8a2b71de2503538308ca81526020017f267bf7ce4335d2f84604883775187befee9586c9ee818573c6d3e1608898a2c98152508160e001516004815181101515610f1f57fe5b9060200190602002018190525060408051908101604052807f200522012a88698da98a4f3248fac788854f92d0e7fbf140c9ac3ad03b98159a81526020017f2324c72163e3d2ca5818f377df274e19c4c5b69b2be6215031f8ec52c1b36ded8152508160e001516005815181101515610f9457fe5b9060200190602002018190525060408051908101604052807ec83b7ecd2f4a3f39dad73f4a9d559b9017690cebdbc218f95c53b3c494ca7281526020017f238cf283f91b3abac2ac960f9873f720c0c3c4fb66f31add939411c285ca0d858152508160e00151600681518110151561100857fe5b9060200190602002018190525060408051908101604052807f1b13bb4c0d02821274c91c011458a8aa8476b0ae0d12bfc0b972f2e1f6b40cf681526020017f07ad70ad73d301bc987dbfd2bbf336decf45b7067c2a61ea880b9d2c12b258018152508160e00151600781518110151561107d57fe5b9060200190602002018190525060408051908101604052807f03cfab29206d655cad302a0e73e04fe694e8046b44f7221586c00d8b6f15f7e481526020017f2044f24f4f84c813e2d8f35157a598de7ca0c2a171616f30d79e0035d14ecff18152508160e0015160088151811015156110f257fe5b9060200190602002018190525060408051908101604052807f0d4b4dba399ac3e76f92fc7ec600b9b4e57d508601ee524de4c52bb4e1ab9cd881526020017f1d8b64ea56026e0543f133c9801ae3d030c10480d7b951a4b41466c64f9406458152508160e00151600981518110151561116757fe5b9060200190602002018190525060408051908101604052807f1e3143b26483c7cf941026229b82bc47a79e089560b0d7809ba155a20c4ac46181526020017f0ce0244211f95d9c77c68fa730bd7e0687c86565cb9ca3223f78bc12a48cb5318152508160e00151600a8151811015156111dc57fe5b9060200190602002018190525060408051908101604052807f2652b62b329864588521f4b09dce73ad8ead1166449660343485ecf54af34fae81526020017f25a9ce39710347c279a41f3d9ae06888410e8ab26308a1a6d6efd27b6edb34008152508160e00151600b81518110151561125157fe5b9060200190602002018190525060408051908101604052807ecaf7b29f3df7507112398deb3764ed3fddf4e6ac9210e6cae6684af459001381526020017f291a9c5458127ab36f894a2d5d52a68763f60a0630006dc1c1d4c8895be67e038152508160e00151600c8151811015156112c557fe5b9060200190602002018190525060408051908101604052807f128db8b12325efa978fbd761345a44117cd642c0631720db46013e9fc829383781526020017f1d782229fa30382b4a35d1bf2bb1e835c3b72669e411372d3780ede1f4b525478152508160e00151600d81518110151561133a57fe5b9060200190602002018190525060408051908101604052807f1da78464fb313ac090b8bcddee3c5d47b0fa3f930bea48afb3957996c6c8ed3d81526020017f29f0e160adda54b047aecfab50dc87d8196de5e76c9f873d6c3e5da1b9254c9f8152508160e00151600e8151811015156113af57fe5b9060200190602002018190525060408051908101604052807f0bb2c12d6a4aefbe1dcb4be9a4b1bad4db4d764c73658f355a0bfc66254fd3cd81526020017f2752eab48060e72ea4f7ce72c697cbb1e8461a7fa798309079113a382b24128d8152508160e00151600f81518110151561142457fe5b9060200190602002018190525060408051908101604052807f23c43a005aab7b30c544b5314db67259d6a8ec40ef2afa9d4a910f3b3529622681526020017f2b49b63d713021c56a44ee63501eb35455c89ad3f7286b40753e671d29ffccc98152508160e00151601081518110151561149957fe5b9060200190602002018190525060408051908101604052807f01c595a368f8e79e9785b3adc59fd0512751743df40e4670380e3e5b9330dba381526020017f043885e0cd9943639408eba7c40b8120bbbc7bbd5383145b75a587571350344a8152508160e00151601181518110151561150e57fe5b9060200190602002018190525060408051908101604052807f3033ab4310aa680c1159ddf5eb98cdce7f975476d6c1982bb8ddc8cb4afa13b081526020017f02ffca5dcc25313706581539a17593560348e279f35913cfda8731440f61d55d8152508160e00151601281518110151561158357fe5b9060200190602002018190525060408051908101604052807f01291b97b2aaf1d31edf7b16681cfad1f48cef552f781b021874c966cea9698a81526020017f1bab800e473b8d380bcc20a37b61dca7aa50dcb16e2eb0b03ad146bfecca522e8152508160e0015160138151811015156115f857fe5b9060200190602002018190525060408051908101604052807f09651d8cd6c03c6135efbbd8af1a4f57bda60fbf413ed25fc5bffe43419f778f81526020017f2468d295c72f8d5b408ee86e591da9f68e96bf5e89f06543c360c65a8f76f7618152508160e00151601481518110151561166d57fe5b9060200190602002018190525060408051908101604052807f0d87d6690a80958bdfa9b9680aa5bcc34026cbf005c19192262a61fb0ecdb14781526020017f285a6181a436bc40669e09cfea3c8facf9b46005a63f75f2facb4242ec299dfe8152508160e0015160158151811015156116e257fe5b9060200190602002018190525060408051908101604052807f211fafaccbaa59b67d0d885cdf1e5b88e7e97a55479af46e3d03f8f866511e1381526020017f135e3196ac8be5f05685e579a45aef95de527a3809d85cb3d6dc037cccab397f8152508160e00151601681518110151561175757fe5b9060200190602002018190525060408051908101604052807f0ef903b96e0e196a0f2a27a80b69365ae313062aa56dcfd42d022417ca861c8681526020017f25ea1269e878d9c4109116bde10348ff513d9eba1964f2f342d8b793a789fbc68152508160e0015160178151811015156117cc57fe5b9060200190602002018190525060408051908101604052807f1c91e2aaca87e6cc433085b336b8c6e78f16c8638e25b6718bb940a9e76cdb1881526020017f17818a471e662cd0b39c4aa90f49e600450b5290f18f57a0be6284b96b48a9a68152508160e00151601881518110151561184157fe5b9060200190602002018190525060408051908101604052807f037c31c5e09263d08012266fe3933bee74aadf5f244cf1c18b6571c0f109a0e481526020017f24c71bff0cd8cddbeac4a1b4fcb0b40dac1c076fe7fa66075fd851dd81c95ca98152508160e0015160198151811015156118b657fe5b9060200190602002018190525060408051908101604052807f04beb13c1e72b451e4bf554110ba9311019d016ba94bfea084bf6a7b5cf4434881526020017f112f6158c03613adbd2bedbf88e74bcff83ee6cc609eb3928d1668e673fae5188152508160e00151601a81518110151561192b57fe5b9060200190602002018190525060408051908101604052807f0362a001bdb1590e1b908fc79a971882ff984c027310d04c8232a3627dd99d7381526020017f1fc93e6c816ea2903bbbc38bf3aa49fa39eabca2f603709f055267ca998720ec8152508160e00151601b8151811015156119a057fe5b9060200190602002018190525060408051908101604052807f1cc05c2c8c37d52aa8f718916e743c73aad817b1236d92f3d1a970ef9d270bea81526020017f27c531c1ab3baea8cb05221d03f88fbf56281a9ce8c2f07dcabdd5a4fd93a7f68152508160e00151601c815181101515611a1557fe5b9060200190602002018190525060408051908101604052807f2d73d919f6277ea9d988a642f097f82492f740e78004fa6840bdd4224910b0b081526020017f17be21a4e61ecd40b57e7d0a6ab13b2419301eae434fa3afc5cbafd1ad97080e8152508160e00151601d815181101515611a8a57fe5b9060200190602002018190525060408051908101604052807eaf2c514c2c099679c99bdfc28d9acda6af7f8cd1b0acd5ad45be222047317d81526020017f1d11a42eb46e2fd85121b28ee5a8fac15fb18a29d6682178bb4545bac12095c68152508160e00151601e815181101515611afe57fe5b9060200190602002018190525060408051908101604052807f1c9be406688324d4b2ada2574287ecb675348866454a018d20545a0b5d3ba3b981526020017f0b61c4ca5c64b00130d48606031b0fda58b8ed9f5b87d97166b239c1fc77109b8152508160e00151601f815181101515611b7357fe5b9060200190602002018190525060408051908101604052807f2cc6632a2b705cb577c3fa653ec0fae9bd60842448dc87e41cb5879af7e7d9c381526020017f0d86609d03f58b03637acac603b0b2fa9f9f46cfc19e0c06b2ca37effb2c201d8152508160e001516020815181101515611be857fe5b9060200190602002018190525060408051908101604052807f18c190a0693c1478a35481e96941d4129ad639b5188560199e02f81aeeccdce281526020017f08b92889335f9672d368f2f17cde028958b76561b9500c7e052f54ffa340fa2b8152508160e001516021815181101515611c5d57fe5b9060200190602002018190525060408051908101604052807f28b6b079e616fa642116d8479459eb39ba966dc7b03da4b05628f39cb2736ecf81526020017f15b0c12d22eb122b3057f333444a24078dba7bd9d5f9e0ee2c20ab4df5c743638152508160e001516022815181101515611cd257fe5b9060200190602002018190525060408051908101604052807f0d0e63a57227c66fb114624275589e26a7bef0b3441afe3a74bebf13e0a166d881526020017f0370f6b37f000f70e9a18271a0aaae14225a97b2f79f1de7aa7a45ca0f4d6f008152508160e001516023815181101515611d4757fe5b9060200190602002018190525060408051908101604052807f228566e384cd86292e887f88593a2adacf2c32dec70e1eeb4644ea03b5adaf3781526020017f07a7ec0e9297eee1fdfc77bb44b6f9489e999ba2c7a80725ac68c5371c42ec268152508160e001516024815181101515611dbc57fe5b9060200190602002018190525060408051908101604052807f0b8bdddd9c7278cb65776f32fbeb42cd083771ccc8605e05cdf5b1a0bf558e9b81526020017f2287f1ef3af2c3f80d4606df86087b6136a5eb669e90aea9be30b20510362c048152508160e001516025815181101515611e3157fe5b9060200190602002018190525060408051908101604052807f02f70e268ab4b8366844cc8846212de25839bd85bba8808aac9d6b3aae5ee10081526020017f197d851686305de74d28336c988cb1afb5a6170bce42a8667fa2a825800ad9758152508160e001516026815181101515611ea657fe5b9060200190602002018190525060408051908101604052807f098c7d1cadaa4a92ba580d8716c60e9d830f802cb75ae4af696a1da454850e9c81526020017f20348d05d9191f11b8dee7909b52fff08a5abcb9feb1ba1b9164364e5be713858152508160e001516027815181101515611f1b57fe5b9060200190602002018190525090565b611f336127ae565b611f3b6127e2565b60008460000151826000600381101515611f5157fe5b6020020181815250508460200151826001600381101515611f6e57fe5b60200201818152505083826002600381101515611f8757fe5b60200201818152505060608360808460076107d05a03fa90508060008114611fae57611fb0565bfe5b50801515611fbd57600080fd5b505092915050565b611fcd6127ae565b611fd5612805565b60008460000151826000600481101515611feb57fe5b602002018181525050846020015182600160048110151561200857fe5b602002018181525050836000015182600260048110151561202557fe5b602002018181525050836020015182600360048110151561204257fe5b60200201818152505060608360c08460066107d05a03fa905080600081146120695761206b565bfe5b5080151561207857600080fd5b505092915050565b6120886127ae565b60007f30644e72e131a029b85045b68181585d97816a916871ca8d3c208c16d87cfd479050600083600001511480156120c5575060008360200151145b156120e85760408051908101604052806000815260200160008152509150612115565b60408051908101604052808460000151815260200182856020015181151561210c57fe5b06830381525091505b50919050565b612123612828565b604080519081016040528060408051908101604052807f198e9393920d483a7260bfb731fb5d25f1aa493335a9e71297e485b7aef312c281526020017f1800deef121f1e76426a00665e5c4479674322d4f75edadd46debd5cd992f6ed815250815260200160408051908101604052807f090689d0585ff075ec9e99ad690c3395bc4b313370b38ef355acdadcd122975b81526020017f12c85ea5db8c6deb4aab71808dcb408fe3d1e7690c43d37b4ce6cc0166fa7daa815250815250905090565b6000606080600260405190808252806020026020018201604052801561222557816020015b6122126127c8565b81526020019060019003908161220a5790505b509150600260405190808252806020026020018201604052801561226357816020015b61225061284f565b8152602001906001900390816122485790505b5090508682600081518110151561227657fe5b906020019060200201819052508482600181518110151561229357fe5b90602001906020020181905250858160008151811015156122b057fe5b90602001906020020181905250838160018151811015156122cd57fe5b906020019060200201819052506122e48282612437565b92505050949350505050565b6000606080600360405190808252806020026020018201604052801561233057816020015b61231d6127c8565b8152602001906001900390816123155790505b509150600360405190808252806020026020018201604052801561236e57816020015b61235b61284f565b8152602001906001900390816123535790505b5090508882600081518110151561238157fe5b906020019060200201819052508682600181518110151561239e57fe5b90602001906020020181905250848260028151811015156123bb57fe5b90602001906020020181905250878160008151811015156123d857fe5b90602001906020020181905250858160018151811015156123f557fe5b906020019060200201819052508381600281518110151561241257fe5b906020019060200201819052506124298282612437565b925050509695505050505050565b600080600060606000612448612876565b60008751895114151561245a57600080fd5b88519550600686029450846040519080825280602002602001820160405280156124935781602001602082028038833980820191505090505b509350600092505b858310156126705788838151811015156124b157fe5b906020019060200201516000015184600060068602018151811015156124d357fe5b906020019060200201818152505088838151811015156124ef57fe5b9060200190602002015160200151846001600686020181518110151561251157fe5b9060200190602002018181525050878381518110151561252d57fe5b9060200190602002015160000151600060028110151561254957fe5b6020020151846002600686020181518110151561256257fe5b9060200190602002018181525050878381518110151561257e57fe5b9060200190602002015160000151600160028110151561259a57fe5b602002015184600360068602018151811015156125b357fe5b906020019060200201818152505087838151811015156125cf57fe5b906020019060200201516020015160006002811015156125eb57fe5b6020020151846004600686020181518110151561260457fe5b9060200190602002018181525050878381518110151561262057fe5b9060200190602002015160200151600160028110151561263c57fe5b6020020151846005600686020181518110151561265557fe5b9060200190602002018181525050828060010193505061249b565b602082602087026020870160086107d05a03fa9050806000811461269357612695565bfe5b508015156126a257600080fd5b60008260006001811015156126b357fe5b60200201511415965050505050505092915050565b610240604051908101604052806126dd6127c8565b81526020016126ea6127c8565b81526020016126f761284f565b81526020016127046127c8565b81526020016127116127c8565b815260200161271e6127c8565b815260200161272b6127c8565b81526020016127386127c8565b81525090565b6103206040519081016040528061275361284f565b81526020016127606127c8565b815260200161276d61284f565b815260200161277a61284f565b81526020016127876127c8565b815260200161279461284f565b81526020016127a161284f565b8152602001606081525090565b604080519081016040528060008152602001600081525090565b604080519081016040528060008152602001600081525090565b606060405190810160405280600390602082028038833980820191505090505090565b608060405190810160405280600490602082028038833980820191505090505090565b60806040519081016040528061283c612899565b8152602001612849612899565b81525090565b608060405190810160405280612863612899565b8152602001612870612899565b81525090565b602060405190810160405280600190602082028038833980820191505090505090565b60408051908101604052806002906020820280388339808201915050905050905600a165627a7a72305820e7d3fa0aa898d6e26680e5be9545521451d67fb89cc42ea8bd5680aa265171b40029",
  "source": "//\n// Copyright 2017 Christian Reitwiessner\n// Permission is hereby granted, free of charge, to any person obtaining a copy of this software and associated documentation files (the \"Software\"), to deal in the Software without restriction, including without limitation the rights to use, copy, modify, merge, publish, distribute, sublicense, and/or sell copies of the Software, and to permit persons to whom the Software is furnished to do so, subject to the following conditions:\n// The above copyright notice and this permission notice shall be included in all copies or substantial portions of the Software.\n// THE SOFTWARE IS PROVIDED \"AS IS\", WITHOUT WARRANTY OF ANY KIND, EXPRESS OR IMPLIED, INCLUDING BUT NOT LIMITED TO THE WARRANTIES OF MERCHANTABILITY, FITNESS FOR A PARTICULAR PURPOSE AND NONINFRINGEMENT. IN NO EVENT SHALL THE AUTHORS OR COPYRIGHT HOLDERS BE LIABLE FOR ANY CLAIM, DAMAGES OR OTHER LIABILITY, WHETHER IN AN ACTION OF CONTRACT, TORT OR OTHERWISE, ARISING FROM, OUT OF OR IN CONNECTION WITH THE SOFTWARE OR THE USE OR OTHER DEALINGS IN THE SOFTWARE.\npragma solidity ^0.4.17;\n\nimport \"./Pairing.sol\";\n\ncontract Verifier {\n    using Pairing for *;\n    struct VerifyingKey {\n        Pairing.G2Point A;\n        Pairing.G1Point B;\n        Pairing.G2Point C;\n        Pairing.G2Point gamma;\n        Pairing.G1Point gammaBeta1;\n        Pairing.G2Point gammaBeta2;\n        Pairing.G2Point Z;\n        Pairing.G1Point[] IC;\n    }\n    struct Proof {\n        Pairing.G1Point A;\n        Pairing.G1Point A_p;\n        Pairing.G2Point B;\n        Pairing.G1Point B_p;\n        Pairing.G1Point C;\n        Pairing.G1Point C_p;\n        Pairing.G1Point K;\n        Pairing.G1Point H;\n    }\n    function verifyingKey() pure internal returns (VerifyingKey vk) {\n        vk.A = Pairing.G2Point([1616214395843029768472593816319393708696744593717175474239249163197907508248,6615891654777039880483686432135850112625788251010307329404613657563427951025], [21527633953423189530631642741903701509448615735619226866216899702567419152207,13754352474353804021180497865030257859054087239496906456231177839613236821054]);\n        vk.B = Pairing.G1Point(20640388094264379729962462753854413136387788874483429189879285516395570961395,8314027552672367208727157020212554762847628082753193852721759719989731872588);\n        vk.C = Pairing.G2Point([7269582419990110187892979120133847758391094435877260759833659442708637279587,19278755710154098512360775588637262494181257505342044309582889717732691175281], [16914031745093822271671949378922139573388683221779515397069953508721735223106,10683076186200084863247927607284284514535468600334723862285679370776092809868]);\n        vk.gamma = Pairing.G2Point([20064921618386618961251226381856192180590147024067769207402592904940066498366,20930036037848308966979807915461981194664560165487099289937693694008379336650], [11709020353770686731286038803780786657893357082460019760114220629282534502129,9549705755136030673170188672885153958556222903864481094986664507933139490005]);\n        vk.gammaBeta1 = Pairing.G1Point(17925744835459125428128771142636640672797444946668045433853269665493573711451,19969272708484794053692494060480764455785743077790478069918759589266576347451);\n        vk.gammaBeta2 = Pairing.G2Point([3331525369947812473866835783713739547993256878908529517072532565097420984134,3346403694689559546221413576530821760215926977212094856376693236991904506390], [1953654841986372892336738003239940942454402215865968182189793018439917794328,798022054711528883439323738782723860709648807759367942604553565107244091384]);\n        vk.Z = Pairing.G2Point([11059005459978762063079251234493796795351778027183818481181682906316711765449,10479998649334750516309944720983927221809183689315467906109767938828686026365], [15559406234799734309981066384154193022873315956858201628508362418423974324638,6770978990257199489381551914401336611383342455931915945924719645662182741714]);\n        vk.IC = new Pairing.G1Point[](40);\n        vk.IC[0] = Pairing.G1Point(9170573992588532263458657183029474175804198074732742832702183401949792234275,17859047731088945074453826613648356969170999599175163521281185098082690275294);\n        vk.IC[1] = Pairing.G1Point(20829586553052973940070437420908880903195434050374897091164152223638311307859,5684806765692154582467372515632073243481360508462203208797470618298611254716);\n        vk.IC[2] = Pairing.G1Point(5226880673740661984937286588430301467083694891813580679428803006400637543181,21461372380786152729681466080804099685008905931149546139548231224267937729554);\n        vk.IC[3] = Pairing.G1Point(2455940049775861631448551170171493060012339087278599316768561953403859753924,77254230208750874031035209937153921544685428652993381932717613155499588905);\n        vk.IC[4] = Pairing.G1Point(5402668549328342400293078612908439939255006379685211552941157701508671932618,17406920727306600225617549112942440384555731367328926724980808172265513984713);\n        vk.IC[5] = Pairing.G1Point(14483080080803386918665132267644948216639538764719946896012234703545900209562,15895930542467234753035285476301945060284901757537440913576608392333193604589);\n        vk.IC[6] = Pairing.G1Point(353780034551891351054760936062838012815892309549049472550080009567403821682,16079982070086196268331923631350722475185811125089200972193631080187955907973);\n        vk.IC[7] = Pairing.G1Point(12247309682871869888985772784179259148068338894025099244162057162795328474358,3472632154148855865891070906051791282601355526894801765680171092499290544129);\n        vk.IC[8] = Pairing.G1Point(1723857195557035475990821519326515096169591430930484750658103691025734563812,14595829115895458788338826266226657383596887553573636719050596338038526103537);\n        vk.IC[9] = Pairing.G1Point(6013117016526092193232143703187084239276766272451371333246624462622782364888,13363360843238976486277828060443273986980338426976498728368542360612073899589);\n        vk.IC[10] = Pairing.G1Point(13656428190133314728706299098771687630162100700498929441602494227102325982305,5823778169627411287006716607217112988577198499260603640124531137115176351025);\n        vk.IC[11] = Pairing.G1Point(17334026987917077849358819388468990803240829972670165211606169643355269713838,17035595859894440605545714250034970434532832817364901812388564815050801099776);\n        vk.IC[12] = Pairing.G1Point(358612654073543395082515338236559249375895433838763350878341842434031943699,18591843761938862894598488791030581164435406328503402996843053814610206817795);\n        vk.IC[13] = Pairing.G1Point(8392031407572452978135218396884915728122815590647589519200672796797460625463,13329330047769644846814034568163784227359996978856415982220691116561624540487);\n        vk.IC[14] = Pairing.G1Point(13413049821698795566144435121865050071689565881798076624864431154535223323965,18970425586852484632077555809058407406698815795544452263557825202781621144735);\n        vk.IC[15] = Pairing.G1Point(5291273373382943286112119979463838580506528757355989674144842115920931312589,17786702429014602679057831352938406192672986726892317169587872679463290671757);\n        vk.IC[16] = Pairing.G1Point(16177652035947650303877305491176560037408621308407196845708643331285656887846,19579690099121228616295893928087987749814135358909199628741507399860397001929);\n        vk.IC[17] = Pairing.G1Point(801414486076458455129323607964257036160275491001998090185651795243341765539,1909118822904900293960604546228246281768939564885791587255968204239926211658);\n        vk.IC[18] = Pairing.G1Point(21802307938997309935919161790087575459930403143041519401775179821001467368368,1356568380221120022586159525500609107109569316774448871966979928132342109533);\n        vk.IC[19] = Pairing.G1Point(524944015158400688838575231842666904293185316867869783836374455083086735754,12515461568298609569471501460696619158142419239942296234520864540662117847598);\n        vk.IC[20] = Pairing.G1Point(4249471138444516302393935218377654353082565267260939675064524059280068802447,16468468048476129247211889467289177155491171117861515489825503062430328485729);\n        vk.IC[21] = Pairing.G1Point(6120071190946177539104435434226047102904836759512365475341956447842169893191,18252203143683201525485594308312001772165910272237719407489314422913271176702);\n        vk.IC[22] = Pairing.G1Point(14982308726425909144497627574512736741943105958655238376641486441109030772243,8760369994905487264092380925623071197703250102358353020015879932694607116671);\n        vk.IC[23] = Pairing.G1Point(6772350503714873118540145389508913233164677797008183636371644135583607299206,17149144697449807323999501247700117807157983125121282493396386583867676031942);\n        vk.IC[24] = Pairing.G1Point(12922516983918622259051938704258602396449337442753406582185714705980967410456,10632073147125010108184344184982846650615940685695822806789763160822612797862);\n        vk.IC[25] = Pairing.G1Point(1576371102112979634032790970631727682555096983224110139121981399979956740324,16635058338179187480521035734474544811069957749903274374244030277057593826473);\n        vk.IC[26] = Pairing.G1Point(2146175566547695927785333751386716661713229163593503804889480555878038127432,7773032100073263994067340127564686596311623463064403164655587729356422309144);\n        vk.IC[27] = Pairing.G1Point(1531193884450493794835784317963441744250673406762559200989134219747784236403,14377265399680252586943900639656388185242768219767679514592010180690184708332);\n        vk.IC[28] = Pairing.G1Point(13004630558437155819075552446087315534595472311102514793177753605496528899050,17988613373382384091481213037476294426120941054481813432656238126304146466806);\n        vk.IC[29] = Pairing.G1Point(20558763977575492866066167165353922420072990308138692126649447632203603292336,10739128663018215652949062297449201152375380392768543056995898955805807282190);\n        vk.IC[30] = Pairing.G1Point(309504104953006205620307316095267269442461501196336755379800337277893685629,13148242154575918897417910145088863715039744627952684924630818330536811992518);\n        vk.IC[31] = Pairing.G1Point(12940194826305284489664417777717407877921555410270436023204848163542752011193,5148183697622782543018216284928067404473383347210343725100671655169125453979);\n        vk.IC[32] = Pairing.G1Point(20252285466270585118570664582933384534520407233065312125222253325850090396099,6117491339040632600591704164641951424133215820019061292488220772689421017117);\n        vk.IC[33] = Pairing.G1Point(11197508025648532171433372711824025220118381735635369588093059531903869967586,3945649264426946599961441489355498776316757419550422643623886466417309055531);\n        vk.IC[34] = Pairing.G1Point(18415298102862183069237133831227213535590498523513580919546409857583932468943,9810868157569440903895350390088596227391230717241053436611757141283177972579);\n        vk.IC[35] = Pairing.G1Point(5905490623790856569620339113280869855524108755427973822155306488720420595416,1556528085811427963430967872358974089412249094038678688250126627670177181440);\n        vk.IC[36] = Pairing.G1Point(15614337623467618598241504703701510888822133652284085615642524555536826740535,3462882604916047065294843970425952448647244646981006055466278274991023909926);\n        vk.IC[37] = Pairing.G1Point(5222564336986788338290553010725388585457106694369013518126153102298952601243,15618830976080949916522026295714219805801558967776596494120854499674320940036);\n        vk.IC[38] = Pairing.G1Point(1341134585701062099231704698969261749990863823435664166321543575071914647808,11529595637193651608243839933274713062743743192430288672865739630389699991925);\n        vk.IC[39] = Pairing.G1Point(4319037717779307038980736290643918847957542052955162676978480152504286121628,14566860505930732840215217338162568599859722967396385566922518122836556977029);\n\n    }\n    function verify(uint[] input, Proof proof) view internal returns (uint) {\n        VerifyingKey memory vk = verifyingKey();\n        require(input.length + 1 == vk.IC.length);\n        // Compute the linear combination vk_x\n        Pairing.G1Point memory vk_x = Pairing.G1Point(0, 0);\n        for (uint i = 0; i < input.length; i++)\n            vk_x = Pairing.addition(vk_x, Pairing.scalar_mul(vk.IC[i + 1], input[i]));\n        vk_x = Pairing.addition(vk_x, vk.IC[0]);\n        if (!Pairing.pairingProd2(proof.A, vk.A, Pairing.negate(proof.A_p), Pairing.P2())) return 1;\n        if (!Pairing.pairingProd2(vk.B, proof.B, Pairing.negate(proof.B_p), Pairing.P2())) return 2;\n        if (!Pairing.pairingProd2(proof.C, vk.C, Pairing.negate(proof.C_p), Pairing.P2())) return 3;\n        if (!Pairing.pairingProd3(\n            proof.K, vk.gamma,\n            Pairing.negate(Pairing.addition(vk_x, Pairing.addition(proof.A, proof.C))), vk.gammaBeta2,\n            Pairing.negate(vk.gammaBeta1), proof.B\n        )) return 4;\n        if (!Pairing.pairingProd3(\n                Pairing.addition(vk_x, proof.A), proof.B,\n                Pairing.negate(proof.H), vk.Z,\n                Pairing.negate(proof.C), Pairing.P2()\n        )) return 5;\n        return 0;\n    }\n    function verifyProof(\n            uint[2] a,\n            uint[2] a_p,\n            uint[2][2] b,\n            uint[2] b_p,\n            uint[2] c,\n            uint[2] c_p,\n            uint[2] h,\n            uint[2] k,\n            uint[39] input\n        ) view public returns (bool r) {\n        Proof memory proof;\n        proof.A = Pairing.G1Point(a[0], a[1]);\n        proof.A_p = Pairing.G1Point(a_p[0], a_p[1]);\n        proof.B = Pairing.G2Point([b[0][0], b[0][1]], [b[1][0], b[1][1]]);\n        proof.B_p = Pairing.G1Point(b_p[0], b_p[1]);\n        proof.C = Pairing.G1Point(c[0], c[1]);\n        proof.C_p = Pairing.G1Point(c_p[0], c_p[1]);\n        proof.H = Pairing.G1Point(h[0], h[1]);\n        proof.K = Pairing.G1Point(k[0], k[1]);\n        uint[] memory inputValues = new uint[](input.length);\n        for(uint i = 0; i < input.length; i++){\n            inputValues[i] = input[i];\n        }\n        if (verify(inputValues, proof) == 0) {\n            return true;\n        } else {\n            return false;\n        }\n    }\n}\n\n\n\n\n\n\n\n\n\n",
  "sourcePath": "/home/user/deploySnappframeVerifier/contracts/Verifier.sol",
  "compiler": {
    "name": "solc",
    "version": "0.4.24+commit.e67f0147.Emscripten.clang"
  },
  "schemaVersion": "3.0.6",
  "updatedAt": "2019-04-09T20:24:32.883Z",
  "devdoc": {
    "methods": {}
  },
  "userdoc": {
    "methods": {}
  }
}