{
  "contractName": "Verifier",
  "abi": [
    {
      "constant": true,
      "inputs": [
        {
          "name": "a",
          "type": "uint256[2]"
        },
        {
          "name": "a_p",
          "type": "uint256[2]"
        },
        {
          "name": "b",
          "type": "uint256[2][2]"
        },
        {
          "name": "b_p",
          "type": "uint256[2]"
        },
        {
          "name": "c",
          "type": "uint256[2]"
        },
        {
          "name": "c_p",
          "type": "uint256[2]"
        },
        {
          "name": "h",
          "type": "uint256[2]"
        },
        {
          "name": "k",
          "type": "uint256[2]"
        },
        {
          "name": "input",
          "type": "uint256[39]"
        }
      ],
      "name": "verifyProof",
      "outputs": [
        {
          "name": "r",
          "type": "bool"
        }
      ],
      "payable": false,
      "stateMutability": "view",
      "type": "function",
      "signature": "0x3fe6f64c"
    }
  ],
  "bytecode": "0x608060405234801561001057600080fd5b506128ea806100206000396000f300608060405260043610610041576000357c0100000000000000000000000000000000000000000000000000000000900463ffffffff1680633fe6f64c14610046575b600080fd5b34801561005257600080fd5b50610247600480360381019080806040019060028060200260405190810160405280929190826002602002808284378201915050505050919291929080604001906002806020026040519081016040528092919082600260200280828437820191505050505091929192908060800190600280602002604051908101604052809291906000905b8282101561011b5783826040020160028060200260405190810160405280929190826002602002808284378201915050505050815260200190600101906100d9565b50505050919291929080604001906002806020026040519081016040528092919082600260200280828437820191505050505091929192908060400190600280602002604051908101604052809291908260026020028082843782019150505050509192919290806040019060028060200260405190810160405280929190826002602002808284378201915050505050919291929080604001906002806020026040519081016040528092919082600260200280828437820191505050505091929192908060400190600280602002604051908101604052809291908260026020028082843782019150505050509192919290806104e00190602780602002604051908101604052809291908260276020028082843782019150505050509192919290505050610261565b604051808215151515815260200191505060405180910390f35b600061026b6126cb565b6060600060408051908101604052808e600060028110151561028957fe5b602002015181526020018e60016002811015156102a257fe5b6020020151815250836000018190525060408051908101604052808d60006002811015156102cc57fe5b602002015181526020018d60016002811015156102e557fe5b60200201518152508360200181905250604080519081016040528060408051908101604052808e600060028110151561031a57fe5b6020020151600060028110151561032d57fe5b602002015181526020018e600060028110151561034657fe5b6020020151600160028110151561035957fe5b6020020151815250815260200160408051908101604052808e600160028110151561038057fe5b6020020151600060028110151561039357fe5b602002015181526020018e60016002811015156103ac57fe5b602002015160016002811015156103bf57fe5b6020020151815250815250836040018190525060408051908101604052808b60006002811015156103ec57fe5b602002015181526020018b600160028110151561040557fe5b6020020151815250836060018190525060408051908101604052808a600060028110151561042f57fe5b602002015181526020018a600160028110151561044857fe5b60200201518152508360800181905250604080519081016040528089600060028110151561047257fe5b6020020151815260200189600160028110151561048b57fe5b60200201518152508360a0018190525060408051908101604052808860006002811015156104b557fe5b602002015181526020018860016002811015156104ce57fe5b60200201518152508360e0018190525060408051908101604052808760006002811015156104f857fe5b6020020151815260200187600160028110151561051157fe5b60200201518152508360c0018190525060276040519080825280602002602001820160405280156105515781602001602082028038833980820191505090505b509150600090505b602781101561059e57848160278110151561057057fe5b6020020151828281518110151561058357fe5b90602001906020020181815250508080600101915050610559565b60006105aa83856105ce565b14156105b957600193506105be565b600093505b5050509998505050505050505050565b60006105d8612741565b6105e06127b1565b60006105ea610805565b92508260e0015151600187510114151561060357600080fd5b60408051908101604052806000815260200160008152509150600090505b8551811015610681576106728261066d8560e001516001850181518110151561064657fe5b90602001906020020151898581518110151561065e57fe5b90602001906020020151611f2e565b611fc8565b91508080600101915050610621565b6106a7828460e00151600081518110151561069857fe5b90602001906020020151611fc8565b91506106d0856000015184600001516106c38860200151612083565b6106cb61211e565b6121e8565b15156106df57600193506107fc565b610706836020015186604001516106f98860600151612083565b61070161211e565b6121e8565b151561071557600293506107fc565b61073c8560800151846040015161072f8860a00151612083565b61073761211e565b6121e8565b151561074b57600393506107fc565b6107978560c00151846060015161077b610776866107718b600001518c60800151611fc8565b611fc8565b612083565b8660a0015161078d8860800151612083565b8a604001516122f3565b15156107a657600493506107fc565b6107e86107b7838760000151611fc8565b86604001516107c98860e00151612083565b8660c001516107db8a60800151612083565b6107e361211e565b6122f3565b15156107f757600593506107fc565b600093505b50505092915050565b61080d612741565b604080519081016040528060408051908101604052807f298bf48989dbe13a53c62b21028d126b478a597d3044695d76f74ce1c138b2c381526020017f2dde6a07c08ba85de066844dcbafb7c1343f188f96b680f03798490ed273654f815250815260200160408051908101604052807f182c483f137aafec01d904fe918d8df780f507b8eb40e33de0998bfeda8bfbe381526020017f2b3e4edacf35528d438d0554216bb8ee0a5c880e85b781c5ac7384bf900d285b815250815250816000018190525060408051908101604052807f040cc9fc60c98954976df01a44b9016fe5093d986852b2c190850e0e1fcf143d81526020017f2c2efca2af82be9d256e38d7c23b332a1cc4bfd3fb417c9dc49fd5a2efd2a31d8152508160200181905250604080519081016040528060408051908101604052807f2c29c7ca3fc2d06e88bd47209f1fe69f178be2288ccd82be080b0493a281526481526020017f0995d9c8ef9e5461ce83ff73f314ccd53839649fd607e3d9ed85f162bb3ff9f6815250815260200160408051908101604052807f0768b99ff273cdcc5625ed26c82d1c82420e42c1fc7a9577e03288fcad0dcdc681526020017f25c4d359a84400471cf41b83cee25289ae0f2fcc3d98e53ce466d57e3054f9ed8152508152508160400181905250604080519081016040528060408051908101604052807f1b351e73a103230d06e921b462e853bec4d412be7faa04479c0697c09b3dfdba81526020017f2e1956d108cc112cbc0346dde318141806705dc028649224f90834aa7cced18a815250815260200160408051908101604052807f26ab487be39a3752062445071e5f21510bb398f78c9e66932c6df6e73a4b55b281526020017f1051bba7157636435028a0556f45e15cbeb15958eb18483db7117f2d8d462cf9815250815250816060018190525060408051908101604052807f07cbe54c29b43ca0256d3a641ba6b5021a8064b8e27130104233b6e10fae717181526020017f19b6f3889ef8f3e1e1931be3831679b8e13d97effe9c33f3777a6ba79805054d8152508160800181905250604080519081016040528060408051908101604052807f28f653686055b9c8ad61d852b5e7039f87809b6b89dddb593ca467a75fad303881526020017f189d9eef790b7099926efc8acd3d3c752ced8780d717d69dcbbadc46a99f6c95815250815260200160408051908101604052807f1ff3725117d6e8be5f54fdfd28b2305d3a098c7df65278e46081084c14d1f8a281526020017f13e84bc393035239865e62fc170c6bccc01560d872198b0183b19a189d44c9228152508152508160a00181905250604080519081016040528060408051908101604052807f2b47464baaf12ec972a73c7e1845a51834cde0535e09ca4e1a92205013d9a8c681526020017f2b9245853e85809526ce1c87c24cbb3cba5f0e8d1c96c8051f2a5b61c8b41f41815250815260200160408051908101604052807f03e6b77a9ad528ece87280323cbafab5bf46a3f45d2481db81196beff2ceb2c381526020017f2351bd69c20f1377317fa24935b0f9d70b19f67e09fc62191482bc2738ac90848152508152508160c001819052506028604051908082528060200260200182016040528015610cdb57816020015b610cc86127cb565b815260200190600190039081610cc05790505b508160e0018190525060408051908101604052807f2f6f4bd49754ed11d9c7f5d279be4269140648603635b01ea0024d6ecc1b91f081526020017f27b1105b019832b1601a12b2ba8582ecca8729c2b9d00e73d565381badacdad68152508160e001516000815181101515610d4c57fe5b9060200190602002018190525060408051908101604052807f07574249e0f3be1351593956af8d372bead90ea9be1ac64f7c46590a14019c9381526020017f2d247ae32252f410a49a29830dba78de3ea287853813d1d70579dff880b3c6448152508160e001516001815181101515610dc157fe5b9060200190602002018190525060408051908101604052807eff5877c5b4b574f1e49ea0b25a21d9a7e8d516f31a348aa78877f3f5dd163e81526020017f10425e2204cd86a72cd4673bafe9007813fd5a886fa2945416fe31f11e08076a8152508160e001516002815181101515610e3557fe5b9060200190602002018190525060408051908101604052807f2b7630c6fa954755218ce426e69df23e3fdb47a79c93334405481ad674b8aa6c81526020017f02db2c8d058c8641b58235c6085a47418dba689ce876384c23cc20708f6ac8f58152508160e001516003815181101515610eaa57fe5b9060200190602002018190525060408051908101604052807f300edd540e6b8e5b5c98be5feb8189bfe51cebd3784173649012cca8ae210eb081526020017f28c2d3f0b5efbd47ce98ba835998e7e516ff8eb5f849ad186b32e72777e644308152508160e001516004815181101515610f1f57fe5b9060200190602002018190525060408051908101604052807f20bf9e5e336ba5a0cf5cb40810d380f4a714afa5615d85d9a1354c022b38d9a381526020017f2ecfc4ff120a020b2b7da0e8e3335181d4a214cc7cda6c4d0f4abbd101ac540d8152508160e001516005815181101515610f9457fe5b9060200190602002018190525060408051908101604052807f1ba615e270a5586c99b21c384b10e4e67454adf7fda58fd4da3ce58784888c4881526020017f164516429beed90c4236be65a51ea53b9c2ab5564f8a80634e133f9f8ee8ab8a8152508160e00151600681518110151561100957fe5b9060200190602002018190525060408051908101604052807f22a2e10a760e84ac02b150475b9de43eaebd4e2b73b8a89f43a3db798690088681526020017f02170a5383c3d56b51283c1d225ed9dcc78e012d8bd767f705d6aa50fb9edf488152508160e00151600781518110151561107e57fe5b9060200190602002018190525060408051908101604052807f05af44c090f6a1ae59a227444e83001a7b17543bf870abfe58651cfd32a4ae3e81526020017f210aa4d69f419afb8d23485c3210e6681630fc99d4e76de10571d0911f46febf8152508160e0015160088151811015156110f357fe5b9060200190602002018190525060408051908101604052807f20e5bdda3fb26cad5bc6eac5617bb085cdf1ed34be443b025e872da556ab2b7481526020017f0ab69be4bdcd91f9d6e233170fd933642e6580d047c78d584b9c349bf5ae16fc8152508160e00151600981518110151561116857fe5b9060200190602002018190525060408051908101604052807f0246e4fb0501aa2058f6416d34688520a51d62edbf7e2c817dd4f971b98053a281526020017f16fa1ec454f3fe95642f867e4bb47890873cedc35c0d443f04d2f504db6c47dd8152508160e00151600a8151811015156111dd57fe5b9060200190602002018190525060408051908101604052807f0b0b72919438c69de93de0c7986814e43ff2afdaf305249a6cdcca16dbcc835181526020017f08a5a3713e906fba5bd7aabf6e6a60bc8cf6708a928cd9a9b3c2c9e7117d13548152508160e00151600b81518110151561125257fe5b9060200190602002018190525060408051908101604052807f3002b937628f5d8328a89d37facc3e186ce096057f3a86c6d63fee473418ce9e81526020017f1cefe48458c00401d3a78237c1ae11a68fdcc6aacabd938b56efee05d0d2b7698152508160e00151600c8151811015156112c757fe5b9060200190602002018190525060408051908101604052807f08d19160dd928e5b0d8769156ac579c44bc2884b27f816a84b5f66cd56dc2c5b81526020017f17de675fe3641f17f69d6ab4a7b32ce419860ba95c4a3bb6d1df78d826a48db48152508160e00151600d81518110151561133c57fe5b9060200190602002018190525060408051908101604052807f2f72cf0253a169efcfc124ad77ce86ec0869301c679fb705debc810b6fdd23f781526020017f160ab05f46103a41a69ba0cf0d0f740c4f1225119b8ebfb3c7c02978e326575c8152508160e00151600e8151811015156113b157fe5b9060200190602002018190525060408051908101604052807f1b695f135f0a1756466c8c3e1950a9ff4ea9719404194f1ad8dbd5a0bc52f55781526020017f1d3dd2b4d73da926bfea635c754b222d9f36a9e685aeeb136c1e707e3048a8808152508160e00151600f81518110151561142657fe5b9060200190602002018190525060408051908101604052807f1426721ca31c56690fc7843f94ce96a84ca41e05465892a60bafad80471ea8fe81526020017f2a55f674c196a7e3484a0275b0555d2806127f2e8c10317e67022ea6e6a662298152508160e00151601081518110151561149b57fe5b9060200190602002018190525060408051908101604052807f0a63e6da370ac2b74cee54ff571e4215791ec6d10168d3f5482441041dbfd2d581526020017f1419550a92b0e58ef0c3b775f7cd5e04e90dc424612a5e34fb6692b5a3e077838152508160e00151601181518110151561151057fe5b9060200190602002018190525060408051908101604052807f3063366d1a92b9e781836aee568ad1376f5c519f8d68192949d0ed6cf898bb5081526020017f20872059b18c42578156c92e5b99d8eab7cda1e820009d8f8e1d651fa9dc05018152508160e00151601281518110151561158557fe5b9060200190602002018190525060408051908101604052807f08eb02be480439a846036ee3bea171e1955e07f2a45139216b9494f6b05ced0681526020017f0f950784d2eb90de0543eea10a241bfda1f01825b3b8a1f2189a367b3d3518188152508160e0015160138151811015156115fa57fe5b9060200190602002018190525060408051908101604052807f0d0452c69ccb185807f257eb30c09df21208311f39833179e9b4c672a2bc9f5b81526020017f1856f18fa874508870c49f93cc129ac768aafd5980a88e1fe00469da94fca2bf8152508160e00151601481518110151561166f57fe5b9060200190602002018190525060408051908101604052807f2487ecfdd47be3e10bfef016cc03e5991b64248a8b900817a44184b38b5a8c9881526020017f07d34259c346cfdbcb59aca4967d41568981fd15a640f22510838d022cd0cc5a8152508160e0015160158151811015156116e457fe5b9060200190602002018190525060408051908101604052807f0b2c7013031196acc5d7fd7d81f0bc1b198c755f22abe2b5a6e9c30328ded42c81526020017f1b96062c72ac173bab25e88d87b6f8a461a05fa4466b43b8422ee65f60811b678152508160e00151601681518110151561175957fe5b9060200190602002018190525060408051908101604052807f0ca519eb91a95f03731a2c64a79ab15ac596834751065f2e14f51e9f43c2e5a781526020017f089ddbac67ae3dd6678892f63d1ee1dbafea3521c33f2212a7cac4f93e42809e8152508160e0015160178151811015156117ce57fe5b9060200190602002018190525060408051908101604052807f2c63fa9fa82a15118c4f1d449a3db73053a08e0b6e15b0c47f381ec6313b691481526020017f1c84298b274afcf7936f88f10d5338ad9820d36e322086b946565779f47ee4818152508160e00151601881518110151561184357fe5b9060200190602002018190525060408051908101604052807f0dee5c3513c7f5af8e2246057b19efca9cd2f81ef0f12128b3e2b392db5fd27981526020017f2ef569060f2b02b4fcf3d317a89e065e0a8ca2045627ec8cfb21c564e5cbf9928152508160e0015160198151811015156118b857fe5b9060200190602002018190525060408051908101604052807f278405b15875f5e9c6972b583aba7bf7a3bee89556f78943c505f72ca0a81c6781526020017f0a078f2d0e61c2649715c077d1191d3009d2cf03f96497d6c2410bc3fb68b7fc8152508160e00151601a81518110151561192d57fe5b9060200190602002018190525060408051908101604052807f1809b3364f9ed20349d47e68406b7271221087b0726e5f4df287612995794a7181526020017f0c814fdb23fe16b7b344954a1076f78cd43031c6fe7f6d6898ada72950875cb48152508160e00151601b8151811015156119a257fe5b9060200190602002018190525060408051908101604052807f198aaa9d33151e08c6634811281fb6a3fe1fb371dc62ee717524a7d6834f197681526020017f2a23fb228f290073a1ae6b146572607aa472ea6a2b1a328547d6deee7ab8913e8152508160e00151601c815181101515611a1757fe5b9060200190602002018190525060408051908101604052807f1a850398db316a6787bc2d8d037c7836b9c6ed50c6b8cd72be566abc16df4d3781526020017f0d957fd45853dab6a7011e48077861166aa4f665e0085347a0b50a35fac551608152508160e00151601d815181101515611a8c57fe5b9060200190602002018190525060408051908101604052807f02a95959424167272ec3a076b7af4aa45adb181c1e7e008380fcc1d5d90f4aac81526020017f14cab402137a6731f23249e5b5fb968fece4078ba2402360ccfadb174bea595d8152508160e00151601e815181101515611b0157fe5b9060200190602002018190525060408051908101604052807f1710e17e4591095227bb8c327ed21c0639beebfdb5406277455f59b5b1c381e881526020017f2953ec0eaf04cb449e6d594fa384c7a767df6d5bd88101e4982addeb1238aa9e8152508160e00151601f815181101515611b7657fe5b9060200190602002018190525060408051908101604052807f1a03e8e4e5761cbca29cc1ec5fd7ea03bbe1a90d149a9531d097074e925525ce81526020017f20070f579050b1991b0d4cc07037401d205554a82a9dc6af1f10e86f6933531d8152508160e001516020815181101515611beb57fe5b9060200190602002018190525060408051908101604052807f12bffbc5df83188755487e660cc9c9e280a1e69d520b800cd80b790642bcfd3281526020017f086c306f197b0b7eefd02bb45cb65ff904257ee87a3582e80cb43e196f2b76d38152508160e001516021815181101515611c6057fe5b9060200190602002018190525060408051908101604052807f2e9e5fe3b9348df90ff94a0b86813f9f73f769169f569a4c8199fd849b30b0ac81526020017f1b5fe98b521276fc84bb4133e153992af0db443bde858fa10802ec5a7583a9aa8152508160e001516022815181101515611cd557fe5b9060200190602002018190525060408051908101604052807f0669069d83d3d119f5fa647e600e24fdb724be040513b23bf8036d219001c17881526020017f0f16f91a7507232ae8c5a65d27de947fa6fb044856110dcc6410315a39b076dc8152508160e001516023815181101515611d4a57fe5b9060200190602002018190525060408051908101604052807f039b60ebb09a5c72f1aa952aa080228395adbb8a12303813da0389096acaf7f281526020017f24dc010f70794cca254bcdd629c7ed8e250478571e79d9be4d096ddfdb24e20f8152508160e001516024815181101515611dbf57fe5b9060200190602002018190525060408051908101604052807f04150a1ad2c58d5a4ff2df0f2679f191b1867ee086cad610cf0b882db9c6170c81526020017f17abc8bafec25b10a4ddb620626790d8c672ea7bca33e4c392c0027f519b41108152508160e001516025815181101515611e3457fe5b9060200190602002018190525060408051908101604052807f1c9f6fca1a62e8d4a75eb898ef2283eccc9f98c0b17dff9c2667681cc6ba8f6c81526020017f238b6e3860e08a443ff138ba73de4502d12dcd9e529204cf5a41e291411ed70e8152508160e001516026815181101515611ea957fe5b9060200190602002018190525060408051908101604052807f16f9071118c146d74d594c0f057fe0c1a1566404db27d94534a5ece6e1348bf681526020017f24ec51cc28841d9137d58d9b993f591bae7b1e7e079b50e9ff3d6272878195068152508160e001516027815181101515611f1e57fe5b9060200190602002018190525090565b611f366127b1565b611f3e6127e5565b60008460000151826000600381101515611f5457fe5b6020020181815250508460200151826001600381101515611f7157fe5b60200201818152505083826002600381101515611f8a57fe5b60200201818152505060608360808460076107d05a03fa90508060008114611fb157611fb3565bfe5b50801515611fc057600080fd5b505092915050565b611fd06127b1565b611fd8612808565b60008460000151826000600481101515611fee57fe5b602002018181525050846020015182600160048110151561200b57fe5b602002018181525050836000015182600260048110151561202857fe5b602002018181525050836020015182600360048110151561204557fe5b60200201818152505060608360c08460066107d05a03fa9050806000811461206c5761206e565bfe5b5080151561207b57600080fd5b505092915050565b61208b6127b1565b60007f30644e72e131a029b85045b68181585d97816a916871ca8d3c208c16d87cfd479050600083600001511480156120c8575060008360200151145b156120eb5760408051908101604052806000815260200160008152509150612118565b60408051908101604052808460000151815260200182856020015181151561210f57fe5b06830381525091505b50919050565b61212661282b565b604080519081016040528060408051908101604052807f198e9393920d483a7260bfb731fb5d25f1aa493335a9e71297e485b7aef312c281526020017f1800deef121f1e76426a00665e5c4479674322d4f75edadd46debd5cd992f6ed815250815260200160408051908101604052807f090689d0585ff075ec9e99ad690c3395bc4b313370b38ef355acdadcd122975b81526020017f12c85ea5db8c6deb4aab71808dcb408fe3d1e7690c43d37b4ce6cc0166fa7daa815250815250905090565b6000606080600260405190808252806020026020018201604052801561222857816020015b6122156127cb565b81526020019060019003908161220d5790505b509150600260405190808252806020026020018201604052801561226657816020015b612253612852565b81526020019060019003908161224b5790505b5090508682600081518110151561227957fe5b906020019060200201819052508482600181518110151561229657fe5b90602001906020020181905250858160008151811015156122b357fe5b90602001906020020181905250838160018151811015156122d057fe5b906020019060200201819052506122e7828261243a565b92505050949350505050565b6000606080600360405190808252806020026020018201604052801561233357816020015b6123206127cb565b8152602001906001900390816123185790505b509150600360405190808252806020026020018201604052801561237157816020015b61235e612852565b8152602001906001900390816123565790505b5090508882600081518110151561238457fe5b90602001906020020181905250868260018151811015156123a157fe5b90602001906020020181905250848260028151811015156123be57fe5b90602001906020020181905250878160008151811015156123db57fe5b90602001906020020181905250858160018151811015156123f857fe5b906020019060200201819052508381600281518110151561241557fe5b9060200190602002018190525061242c828261243a565b925050509695505050505050565b60008060006060600061244b612879565b60008751895114151561245d57600080fd5b88519550600686029450846040519080825280602002602001820160405280156124965781602001602082028038833980820191505090505b509350600092505b858310156126735788838151811015156124b457fe5b906020019060200201516000015184600060068602018151811015156124d657fe5b906020019060200201818152505088838151811015156124f257fe5b9060200190602002015160200151846001600686020181518110151561251457fe5b9060200190602002018181525050878381518110151561253057fe5b9060200190602002015160000151600060028110151561254c57fe5b6020020151846002600686020181518110151561256557fe5b9060200190602002018181525050878381518110151561258157fe5b9060200190602002015160000151600160028110151561259d57fe5b602002015184600360068602018151811015156125b657fe5b906020019060200201818152505087838151811015156125d257fe5b906020019060200201516020015160006002811015156125ee57fe5b6020020151846004600686020181518110151561260757fe5b9060200190602002018181525050878381518110151561262357fe5b9060200190602002015160200151600160028110151561263f57fe5b6020020151846005600686020181518110151561265857fe5b9060200190602002018181525050828060010193505061249e565b602082602087026020870160086107d05a03fa9050806000811461269657612698565bfe5b508015156126a557600080fd5b60008260006001811015156126b657fe5b60200201511415965050505050505092915050565b610240604051908101604052806126e06127cb565b81526020016126ed6127cb565b81526020016126fa612852565b81526020016127076127cb565b81526020016127146127cb565b81526020016127216127cb565b815260200161272e6127cb565b815260200161273b6127cb565b81525090565b61032060405190810160405280612756612852565b81526020016127636127cb565b8152602001612770612852565b815260200161277d612852565b815260200161278a6127cb565b8152602001612797612852565b81526020016127a4612852565b8152602001606081525090565b604080519081016040528060008152602001600081525090565b604080519081016040528060008152602001600081525090565b606060405190810160405280600390602082028038833980820191505090505090565b608060405190810160405280600490602082028038833980820191505090505090565b60806040519081016040528061283f61289c565b815260200161284c61289c565b81525090565b60806040519081016040528061286661289c565b815260200161287361289c565b81525090565b602060405190810160405280600190602082028038833980820191505090505090565b60408051908101604052806002906020820280388339808201915050905050905600a165627a7a723058203fa79e3f192f5910c211c6613372fd9f9226ce07d97c2630e719164d027db1f50029",
  "source": "//\n// Copyright 2017 Christian Reitwiessner\n// Permission is hereby granted, free of charge, to any person obtaining a copy of this software and associated documentation files (the \"Software\"), to deal in the Software without restriction, including without limitation the rights to use, copy, modify, merge, publish, distribute, sublicense, and/or sell copies of the Software, and to permit persons to whom the Software is furnished to do so, subject to the following conditions:\n// The above copyright notice and this permission notice shall be included in all copies or substantial portions of the Software.\n// THE SOFTWARE IS PROVIDED \"AS IS\", WITHOUT WARRANTY OF ANY KIND, EXPRESS OR IMPLIED, INCLUDING BUT NOT LIMITED TO THE WARRANTIES OF MERCHANTABILITY, FITNESS FOR A PARTICULAR PURPOSE AND NONINFRINGEMENT. IN NO EVENT SHALL THE AUTHORS OR COPYRIGHT HOLDERS BE LIABLE FOR ANY CLAIM, DAMAGES OR OTHER LIABILITY, WHETHER IN AN ACTION OF CONTRACT, TORT OR OTHERWISE, ARISING FROM, OUT OF OR IN CONNECTION WITH THE SOFTWARE OR THE USE OR OTHER DEALINGS IN THE SOFTWARE.\npragma solidity ^0.4.17;\n\nimport \"./Pairing.sol\";\n\ncontract Verifier {\n    using Pairing for *;\n    struct VerifyingKey {\n        Pairing.G2Point A;\n        Pairing.G1Point B;\n        Pairing.G2Point C;\n        Pairing.G2Point gamma;\n        Pairing.G1Point gammaBeta1;\n        Pairing.G2Point gammaBeta2;\n        Pairing.G2Point Z;\n        Pairing.G1Point[] IC;\n    }\n    struct Proof {\n        Pairing.G1Point A;\n        Pairing.G1Point A_p;\n        Pairing.G2Point B;\n        Pairing.G1Point B_p;\n        Pairing.G1Point C;\n        Pairing.G1Point C_p;\n        Pairing.G1Point K;\n        Pairing.G1Point H;\n    }\n    function verifyingKey() pure internal returns (VerifyingKey vk) {\n        vk.A = Pairing.G2Point([18792106268057664902611819250916894071241802429874087173917532160881998738115,20747050028737587106377097736104769001758749986209539413879289509739651884367], [10933748263113655308844391775199164180845052365439274931933634861345719188451,19559541242401717597725158365283967568312598168606791569307023007840675375195]);\n        vk.B = Pairing.G1Point(1831847614225558476419327819209248129914898469168193779616392033813025199165,19984783928717714312826798094758318962275891421480925157395720701332543415069);\n        vk.C = Pairing.G2Point([19975584967466689215658533815008788961569011447004976158307734361158929437284,4335578946082734478475350578128351166018343312509649202866218554300135635446], [3351223170058706564896332298872895547385052751178561459135369797201149414854,17083336107912284907953640630298270759884699317980643837666804204833745467885]);\n        vk.gamma = Pairing.G2Point([12306299975922286706443885258277717254850308669779652466428303073062592314810,20851161397190837560903058486495562621777471543528130075205997485981954920842], [17490519360020966489351169878801324128516482298161558131372547699253541819826,7381415320717442300920897943753739658401518891773444075006804205185161112825]);\n        vk.gammaBeta1 = Pairing.G1Point(3526442447494187565101556928313888307981063261122119614024787482183988048241,11631068188028097766814292724110733006373149091102324226317864239331516155213);\n        vk.gammaBeta2 = Pairing.G2Point([18527733980192620595705773212238864422191162143332108470752958955878347518008,11134000287266139389261798574719731739534357113974169556829150230602464586901], [14451831128172210801942012667529519772882441547033283037478590756416595818658,9004375545758529063920338019414616340113763393626918762410206957624717789474]);\n        vk.Z = Pairing.G2Point([19575383792922301780108557094328788826479588475761461145943153793029509851334,19707891973293215826399324255088111987649201312853539822139950646352112000833], [1764579695649565425727817741862172357522147430126296119153149909084255728323,15975371593952102696937293892782231471544532997703834416482606632869378691204]);\n        vk.IC = new Pairing.G1Point[](40);\n        vk.IC[0] = Pairing.G1Point(21455347270025716236372751932326835378697216277492614574791184006801998451184,17953045906677781457777099756932641853369163291519534955447673346315214707414);\n        vk.IC[1] = Pairing.G1Point(3320363141743802209595767156700309398300091517446413734216459228925715913875,20418532817155954162150376479889504996901351616257786740000163384763937441348);\n        vk.IC[2] = Pairing.G1Point(451156584251519718229403136774692182511822604708895322380668186904145761854,7354267164908218230153538205340416353586742796527189143267094089323365533546);\n        vk.IC[3] = Pairing.G1Point(19658277091007872682709198044684281852604621386055298516919936006732805352044,1291872683129107657981399031842701404515278279491053208481814320040265828597);\n        vk.IC[4] = Pairing.G1Point(21737280143000462866741640630839399687029890942830857806309164527419811499696,18436745031924182871323940384442890566496379456373619009106123253522633212976);\n        vk.IC[5] = Pairing.G1Point(14812571959610185732338181955830719952686469976348844078419863429083215485347,21173487996209488790730068543543474038601405561926717431906323855984951055373);\n        vk.IC[6] = Pairing.G1Point(12505894565985629484786104962436584582287810247104422091865709508373955251272,10072948750499339999591288487201594073938473754212233593161857942362312453002);\n        vk.IC[7] = Pairing.G1Point(15666419251285472892833822458124936726234646849768564817486732018511955101830,945334448671948402661722522163459444010624618994823162340666857735942233928);\n        vk.IC[8] = Pairing.G1Point(2571236989580319392790205572862993736514413881987206584522362540679424683582,14945130146496677954142688717030782432798289271328254156074776260828450979519);\n        vk.IC[9] = Pairing.G1Point(14879929446534765260233891261799023948777007562360152128959395786672128600948,4845770589162512287654027425225515914364104656436042994000096409053624669948);\n        vk.IC[10] = Pairing.G1Point(1029885357341947600169838846380626640641820504621891392085282413659484607394,10392806780513013107071990893582410219365714823460858347323728787083205822429);\n        vk.IC[11] = Pairing.G1Point(4995667376013868756552286190807582231404575626246901272643361619168671335249,3911160592071844558717400855013588723224925215031704086829222546035244340052);\n        vk.IC[12] = Pairing.G1Point(21715828742377147998142818426626092734758838543055091339656625275068401372830,13088613375039993366454950787607221996184668827414025070307473642604826113897);\n        vk.IC[13] = Pairing.G1Point(3988777189914284241923734584487126108020658711582510599908484052511385988187,10796149030811658849330037461511953429539798651128452244553822031290007063988);\n        vk.IC[14] = Pairing.G1Point(21461553173019257048862521699872945273351844928523874844374796432301092578295,9969768415410148955578015596987257795165934964438828794275027233360765671260);\n        vk.IC[15] = Pairing.G1Point(12398622041700673591146755736278692767234719765283234737414859272396857341271,13226304522056941281445551673696808357185564300702310868655711398926354000000);\n        vk.IC[16] = Pairing.G1Point(9114184731266508106510797507582398198408570378030125703241133071899639589118,19149022618345723346119211165543642420254305507975545659981822615327888269865);\n        vk.IC[17] = Pairing.G1Point(4699639629970461900613067639274731495656331214815267110218989178955516334805,9091015081772096915329988406841792486939644661758575183555617075632902535043);\n        vk.IC[18] = Pairing.G1Point(21886310227145239336861623010660419203337914362678801218289091126182530300752,14712758782425931878919277485904168778179908757581410630090056611514315179265);\n        vk.IC[19] = Pairing.G1Point(4033730782355834920619580843559996612820902555468138228546362245975929318662,7048004834550850124402433531860792351203043870937919568019937487810108659736);\n        vk.IC[20] = Pairing.G1Point(5887705717623719483900634917762450256847848898336639952913128128344391196507,11009124407451598345692569700033414147549144393916990980908093800701218300607);\n        vk.IC[21] = Pairing.G1Point(16523422558124192514548942911017949572174907621108757344728014208998076746904,3539452606010272586740606102305149536657871142103446945265008435563865361498);\n        vk.IC[22] = Pairing.G1Point(5053956113419178796208117359885190763614806108567616767124310138453818790956,12477516580257079513829012716195243066585409345927898221633826342362708777831);\n        vk.IC[23] = Pairing.G1Point(5719462843273724159611593172173910271390256975638489492407685954500246562215,3897413908315956189274631595682240186252437919525468666683872773452106727582);\n        vk.IC[24] = Pairing.G1Point(20078412938004775508973102169748410515760458787067331812663007338874619521300,12898270296053038464842854974057311258249121343818807696113706555372757509249);\n        vk.IC[25] = Pairing.G1Point(6301213024623988805374468315675943149292708881041980199741915835751697732217,21239993412424428936998676102651056807400327060162680522613563639148185385362);\n        vk.IC[26] = Pairing.G1Point(17873464197256437758936468868507796288389138040197393818159871974695548492903,4536484579725891592710910895555984299298583848351278214388761291582880659452);\n        vk.IC[27] = Pairing.G1Point(10872646866399600266439641889516478288091275221031570833995766388109237373553,5656228600335781053057083260172277463966857862491399004428898016679833328820);\n        vk.IC[28] = Pairing.G1Point(11552823644491271922554860390287019955105961450776970615398026108782618024310,19060712557812187733994763377655948268783816590009851262004633650596203237694);\n        vk.IC[29] = Pairing.G1Point(11995149549015105283673210918321316200903517234725091063280045252417345768759,6144209490831155496916313044300603741563059350067383945448022995942771085664);\n        vk.IC[30] = Pairing.G1Point(1203839512951713924783673337063061540070819236033260731662764823302770739884,9404402449064164296661393616898298599279991487892544198993146098417431894365);\n        vk.IC[31] = Pairing.G1Point(10433021367659101663164896339455835232511617740679876775351212042487979016680,18693104306299246921529849716005657132715373657345858461997730820071989226142);\n        vk.IC[32] = Pairing.G1Point(11767041980544660126727915770159360375358687456188120062179346696558070801870,14486484971026700499328300169249485693129426025305507396741995298906415780637);\n        vk.IC[33] = Pairing.G1Point(8480836736852574990210386460527975199086602624602223370014842691681198603570,3809656550724347645329467490892847730480396818721955654721863366933108979411);\n        vk.IC[34] = Pairing.G1Point(21086214676380470795584616006854503401761281063708061247652132285867801751724,12381909245876731823794629978404523015654680802844660133643978054161314064810);\n        vk.IC[35] = Pairing.G1Point(2899441690374082757869207521921029585414476422580053754468106911684835262840,6825282612297558747524280311713604360980546239758758777690705782393487259356);\n        vk.IC[36] = Pairing.G1Point(1631468762625671229667571409658920607931928095580260518060081889817110706162,16671976221239257907689163141729949836609399902387542475770332946608746193423);\n        vk.IC[37] = Pairing.G1Point(1846424923312342370977867018804140765087562577446355961651396930336117364492,10706711756140944246403451600360698515506045348095174309217651060357912543504);\n        vk.IC[38] = Pairing.G1Point(12946459986163751089379057521062871773975855562225697981239834416675540340588,16077302154476029778583233435936013040182930716005196152266038883585951192846);\n        vk.IC[39] = Pairing.G1Point(10390876361112203549859440533961677077419148392677630012773665909468906687478,16700803001835339647504601118033027086769518206020421059936588874946411861254);\n\n    }\n    function verify(uint[] input, Proof proof) view internal returns (uint) {\n        VerifyingKey memory vk = verifyingKey();\n        require(input.length + 1 == vk.IC.length);\n        // Compute the linear combination vk_x\n        Pairing.G1Point memory vk_x = Pairing.G1Point(0, 0);\n        for (uint i = 0; i < input.length; i++)\n            vk_x = Pairing.addition(vk_x, Pairing.scalar_mul(vk.IC[i + 1], input[i]));\n        vk_x = Pairing.addition(vk_x, vk.IC[0]);\n        if (!Pairing.pairingProd2(proof.A, vk.A, Pairing.negate(proof.A_p), Pairing.P2())) return 1;\n        if (!Pairing.pairingProd2(vk.B, proof.B, Pairing.negate(proof.B_p), Pairing.P2())) return 2;\n        if (!Pairing.pairingProd2(proof.C, vk.C, Pairing.negate(proof.C_p), Pairing.P2())) return 3;\n        if (!Pairing.pairingProd3(\n            proof.K, vk.gamma,\n            Pairing.negate(Pairing.addition(vk_x, Pairing.addition(proof.A, proof.C))), vk.gammaBeta2,\n            Pairing.negate(vk.gammaBeta1), proof.B\n        )) return 4;\n        if (!Pairing.pairingProd3(\n                Pairing.addition(vk_x, proof.A), proof.B,\n                Pairing.negate(proof.H), vk.Z,\n                Pairing.negate(proof.C), Pairing.P2()\n        )) return 5;\n        return 0;\n    }\n    function verifyProof(\n            uint[2] a,\n            uint[2] a_p,\n            uint[2][2] b,\n            uint[2] b_p,\n            uint[2] c,\n            uint[2] c_p,\n            uint[2] h,\n            uint[2] k,\n            uint[39] input\n        ) view public returns (bool r) {\n        Proof memory proof;\n        proof.A = Pairing.G1Point(a[0], a[1]);\n        proof.A_p = Pairing.G1Point(a_p[0], a_p[1]);\n        proof.B = Pairing.G2Point([b[0][0], b[0][1]], [b[1][0], b[1][1]]);\n        proof.B_p = Pairing.G1Point(b_p[0], b_p[1]);\n        proof.C = Pairing.G1Point(c[0], c[1]);\n        proof.C_p = Pairing.G1Point(c_p[0], c_p[1]);\n        proof.H = Pairing.G1Point(h[0], h[1]);\n        proof.K = Pairing.G1Point(k[0], k[1]);\n        uint[] memory inputValues = new uint[](input.length);\n        for(uint i = 0; i < input.length; i++){\n            inputValues[i] = input[i];\n        }\n        if (verify(inputValues, proof) == 0) {\n            return true;\n        } else {\n            return false;\n        }\n    }\n}\n\n\n\n\n",
  "sourcePath": "/home/user/deployVerifier/contracts/Verifier.sol",
  "compiler": {
    "name": "solc",
    "version": "0.4.24+commit.e67f0147.Emscripten.clang"
  },
  "schemaVersion": "3.0.6",
  "updatedAt": "2019-04-09T18:16:10.578Z",
  "devdoc": {
    "methods": {}
  },
  "userdoc": {
    "methods": {}
  }
}